{
  "_format": "hh-sol-artifact-1",
  "contractName": "FNS",
  "sourceName": "contracts/fns.sol",
  "abi": [
    {
      "anonymous": false,
      "inputs": [
        {
          "indexed": false,
          "internalType": "bytes",
          "name": "_name",
          "type": "bytes"
        },
        {
          "indexed": false,
          "internalType": "address",
          "name": "owner",
          "type": "address"
        }
      ],
      "name": "NameRegistered",
      "type": "event"
    },
    {
      "anonymous": false,
      "inputs": [
        {
          "indexed": false,
          "internalType": "bytes",
          "name": "_name",
          "type": "bytes"
        },
        {
          "indexed": false,
          "internalType": "address",
          "name": "_newOwner",
          "type": "address"
        }
      ],
      "name": "NewOwner",
      "type": "event"
    },
    {
      "anonymous": false,
      "inputs": [
        {
          "indexed": false,
          "internalType": "bytes",
          "name": "_name",
          "type": "bytes"
        },
        {
          "indexed": false,
          "internalType": "uint256",
          "name": "_newTtl",
          "type": "uint256"
        }
      ],
      "name": "TtlAdded",
      "type": "event"
    },
    {
      "inputs": [
        {
          "internalType": "bytes",
          "name": "_name",
          "type": "bytes"
        },
        {
          "internalType": "uint64",
          "name": "_extendedTtl",
          "type": "uint64"
        }
      ],
      "name": "addTtl",
      "outputs": [],
      "stateMutability": "payable",
      "type": "function"
    },
    {
      "inputs": [
        {
          "internalType": "bytes",
          "name": "_name",
          "type": "bytes"
        }
      ],
      "name": "checkName",
      "outputs": [
        {
          "components": [
            {
              "internalType": "address",
              "name": "owner",
              "type": "address"
            },
            {
              "internalType": "address",
              "name": "secondController",
              "type": "address"
            },
            {
              "internalType": "bool",
              "name": "isValidator",
              "type": "bool"
            },
            {
              "internalType": "uint256",
              "name": "ttl",
              "type": "uint256"
            }
          ],
          "internalType": "struct FNS.NameInfo",
          "name": "info",
          "type": "tuple"
        }
      ],
      "stateMutability": "view",
      "type": "function"
    },
    {
      "inputs": [
        {
          "internalType": "bytes",
          "name": "_name",
          "type": "bytes"
        }
      ],
      "name": "getNameAddress",
      "outputs": [
        {
          "internalType": "address",
          "name": "owner",
          "type": "address"
        }
      ],
      "stateMutability": "view",
      "type": "function"
    },
    {
      "inputs": [],
      "name": "getPriceTag",
      "outputs": [
        {
          "internalType": "uint256",
          "name": "_priceTag",
          "type": "uint256"
        }
      ],
      "stateMutability": "view",
      "type": "function"
    },
    {
      "inputs": [
        {
          "internalType": "bytes",
          "name": "_name",
          "type": "bytes"
        },
        {
          "internalType": "bool",
          "name": "_isValidator",
          "type": "bool"
        },
        {
          "internalType": "uint256",
          "name": "_ttl",
          "type": "uint256"
        }
      ],
      "name": "registerName",
      "outputs": [],
      "stateMutability": "payable",
      "type": "function"
    },
    {
      "inputs": [
        {
          "internalType": "bytes",
          "name": "_name",
          "type": "bytes"
        },
        {
          "internalType": "address",
          "name": "_newOwner",
          "type": "address"
        }
      ],
      "name": "setNewOwner",
      "outputs": [],
      "stateMutability": "nonpayable",
      "type": "function"
    },
    {
      "inputs": [
        {
          "internalType": "bytes",
          "name": "_name",
          "type": "bytes"
        },
        {
          "internalType": "address",
          "name": "_controller",
          "type": "address"
        }
      ],
      "name": "setSecondController",
      "outputs": [],
      "stateMutability": "nonpayable",
      "type": "function"
    }
  ],
  "bytecode": "0x608060405267016345785d8a00006000557f66696c0000000000000000000000000000000000000000000000000000000000600160006101000a81548162ffffff021916908360e81c02179055506301e1338060025534801561006157600080fd5b506118e0806100716000396000f3fe6080604052600436106100705760003560e01c806383e109cb1161004e57806383e109cb14610106578063b0936fa314610122578063c2d43f141461015f578063e778c5bc1461017b57610070565b806318a8f238146100755780635721cc4b146100a057806376912800146100dd575b600080fd5b34801561008157600080fd5b5061008a6101a4565b6040516100979190610e52565b60405180910390f35b3480156100ac57600080fd5b506100c760048036038101906100c29190610fc7565b6101ad565b6040516100d491906110d0565b60405180910390f35b3480156100e957600080fd5b5061010460048036038101906100ff9190611117565b6102b6565b005b610120600480360381019061011b91906111b3565b6104f2565b005b34801561012e57600080fd5b5061014960048036038101906101449190610fc7565b610884565b604051610156919061121e565b60405180910390f35b61017960048036038101906101749190611291565b61097e565b005b34801561018757600080fd5b506101a2600480360381019061019d9190611117565b610c1d565b005b60008054905090565b6101b5610de3565b6003826040516101c59190611371565b90815260200160405180910390206040518060800160405290816000820160009054906101000a900473ffffffffffffffffffffffffffffffffffffffff1673ffffffffffffffffffffffffffffffffffffffff1673ffffffffffffffffffffffffffffffffffffffff1681526020016001820160009054906101000a900473ffffffffffffffffffffffffffffffffffffffff1673ffffffffffffffffffffffffffffffffffffffff1673ffffffffffffffffffffffffffffffffffffffff1681526020016001820160149054906101000a900460ff161515151581526020016002820154815250509050919050565b81600073ffffffffffffffffffffffffffffffffffffffff166003826040516102df9190611371565b908152602001604051809103902060000160009054906101000a900473ffffffffffffffffffffffffffffffffffffffff1673ffffffffffffffffffffffffffffffffffffffff1603610367576040517f08c379a000000000000000000000000000000000000000000000000000000000815260040161035e906113e5565b60405180910390fd5b3373ffffffffffffffffffffffffffffffffffffffff1660038260405161038e9190611371565b908152602001604051809103902060000160009054906101000a900473ffffffffffffffffffffffffffffffffffffffff1673ffffffffffffffffffffffffffffffffffffffff16148061044e57503373ffffffffffffffffffffffffffffffffffffffff166003826040516104049190611371565b908152602001604051809103902060010160009054906101000a900473ffffffffffffffffffffffffffffffffffffffff1673ffffffffffffffffffffffffffffffffffffffff16145b61048d576040517f08c379a000000000000000000000000000000000000000000000000000000000815260040161048490611451565b60405180910390fd5b8160038460405161049e9190611371565b908152602001604051809103902060010160006101000a81548173ffffffffffffffffffffffffffffffffffffffff021916908373ffffffffffffffffffffffffffffffffffffffff160217905550505050565b81600073ffffffffffffffffffffffffffffffffffffffff1660038260405161051b9190611371565b908152602001604051809103902060000160009054906101000a900473ffffffffffffffffffffffffffffffffffffffff1673ffffffffffffffffffffffffffffffffffffffff16036105a3576040517f08c379a000000000000000000000000000000000000000000000000000000000815260040161059a906113e5565b60405180910390fd5b3373ffffffffffffffffffffffffffffffffffffffff166003826040516105ca9190611371565b908152602001604051809103902060000160009054906101000a900473ffffffffffffffffffffffffffffffffffffffff1673ffffffffffffffffffffffffffffffffffffffff16148061068a57503373ffffffffffffffffffffffffffffffffffffffff166003826040516106409190611371565b908152602001604051809103902060010160009054906101000a900473ffffffffffffffffffffffffffffffffffffffff1673ffffffffffffffffffffffffffffffffffffffff16145b6106c9576040517f08c379a00000000000000000000000000000000000000000000000000000000081526004016106c090611451565b60405180910390fd5b6000603c806018856106db91906114a0565b6106e591906114a0565b6106ef91906114a0565b67ffffffffffffffff16905060006002548261070b919061150c565b148015610719575060025481115b610758576040517f08c379a000000000000000000000000000000000000000000000000000000000815260040161074f90611589565b60405180910390fd5b6000543461076691906115a9565b6002548261077491906115a9565b146107b4576040517f08c379a00000000000000000000000000000000000000000000000000000000081526004016107ab90611626565b60405180910390fd5b8267ffffffffffffffff166003856040516107cf9190611371565b9081526020016040518091039020600201546107eb9190611646565b6003856040516107fb9190611371565b9081526020016040518091039020600201819055507e9e86eda26e05f8909f5e7abc1ff6e2be2bb278d4f9198286ca3f44f101d0c0848467ffffffffffffffff1660038760405161084c9190611371565b9081526020016040518091039020600201546108689190611646565b6040516108769291906116c4565b60405180910390a150505050565b60008073ffffffffffffffffffffffffffffffffffffffff166003836040516108ad9190611371565b908152602001604051809103902060000160009054906101000a900473ffffffffffffffffffffffffffffffffffffffff1673ffffffffffffffffffffffffffffffffffffffff1603610935576040517f08c379a000000000000000000000000000000000000000000000000000000000815260040161092c90611740565b60405180910390fd5b6003826040516109459190611371565b908152602001604051809103902060000160009054906101000a900473ffffffffffffffffffffffffffffffffffffffff169050919050565b60005434146109c2576040517f08c379a00000000000000000000000000000000000000000000000000000000081526004016109b990611626565b60405180910390fd5b6000603c806018846109d49190611760565b6109de9190611760565b6109e89190611760565b9050426003856040516109fb9190611371565b90815260200160405180910390206002015410610a4d576040517f08c379a0000000000000000000000000000000000000000000000000000000008152600401610a44906117ee565b60405180910390fd5b600060025482610a5d919061150c565b148015610a6c57506002548110155b610aab576040517f08c379a0000000000000000000000000000000000000000000000000000000008152600401610aa29061185a565b60405180910390fd5b60405180608001604052803373ffffffffffffffffffffffffffffffffffffffff1681526020013373ffffffffffffffffffffffffffffffffffffffff16815260200184151581526020018242610b029190611646565b815250600385604051610b159190611371565b908152602001604051809103902060008201518160000160006101000a81548173ffffffffffffffffffffffffffffffffffffffff021916908373ffffffffffffffffffffffffffffffffffffffff16021790555060208201518160010160006101000a81548173ffffffffffffffffffffffffffffffffffffffff021916908373ffffffffffffffffffffffffffffffffffffffff16021790555060408201518160010160146101000a81548160ff021916908315150217905550606082015181600201559050507f206f908f69e140eefeee30a932351e83d0e27e3a28f59a5a2652651eb6dfd8ea8433604051610c0f92919061187a565b60405180910390a150505050565b600073ffffffffffffffffffffffffffffffffffffffff16600383604051610c459190611371565b908152602001604051809103902060000160009054906101000a900473ffffffffffffffffffffffffffffffffffffffff1673ffffffffffffffffffffffffffffffffffffffff1614158015610d0757503373ffffffffffffffffffffffffffffffffffffffff16600383604051610cbd9190611371565b908152602001604051809103902060000160009054906101000a900473ffffffffffffffffffffffffffffffffffffffff1673ffffffffffffffffffffffffffffffffffffffff16145b610d46576040517f08c379a0000000000000000000000000000000000000000000000000000000008152600401610d3d90611451565b60405180910390fd5b80600383604051610d579190611371565b908152602001604051809103902060000160006101000a81548173ffffffffffffffffffffffffffffffffffffffff021916908373ffffffffffffffffffffffffffffffffffffffff1602179055507ff0bf3cb0573628f31c07648da039ecc21e6547f9d6adb80fe9595321676cdd088282604051610dd792919061187a565b60405180910390a15050565b6040518060800160405280600073ffffffffffffffffffffffffffffffffffffffff168152602001600073ffffffffffffffffffffffffffffffffffffffff168152602001600015158152602001600081525090565b6000819050919050565b610e4c81610e39565b82525050565b6000602082019050610e676000830184610e43565b92915050565b6000604051905090565b600080fd5b600080fd5b600080fd5b600080fd5b6000601f19601f8301169050919050565b7f4e487b7100000000000000000000000000000000000000000000000000000000600052604160045260246000fd5b610ed482610e8b565b810181811067ffffffffffffffff82111715610ef357610ef2610e9c565b5b80604052505050565b6000610f06610e6d565b9050610f128282610ecb565b919050565b600067ffffffffffffffff821115610f3257610f31610e9c565b5b610f3b82610e8b565b9050602081019050919050565b82818337600083830152505050565b6000610f6a610f6584610f17565b610efc565b905082815260208101848484011115610f8657610f85610e86565b5b610f91848285610f48565b509392505050565b600082601f830112610fae57610fad610e81565b5b8135610fbe848260208601610f57565b91505092915050565b600060208284031215610fdd57610fdc610e77565b5b600082013567ffffffffffffffff811115610ffb57610ffa610e7c565b5b61100784828501610f99565b91505092915050565b600073ffffffffffffffffffffffffffffffffffffffff82169050919050565b600061103b82611010565b9050919050565b61104b81611030565b82525050565b60008115159050919050565b61106681611051565b82525050565b61107581610e39565b82525050565b6080820160008201516110916000850182611042565b5060208201516110a46020850182611042565b5060408201516110b7604085018261105d565b5060608201516110ca606085018261106c565b50505050565b60006080820190506110e5600083018461107b565b92915050565b6110f481611030565b81146110ff57600080fd5b50565b600081359050611111816110eb565b92915050565b6000806040838503121561112e5761112d610e77565b5b600083013567ffffffffffffffff81111561114c5761114b610e7c565b5b61115885828601610f99565b925050602061116985828601611102565b9150509250929050565b600067ffffffffffffffff82169050919050565b61119081611173565b811461119b57600080fd5b50565b6000813590506111ad81611187565b92915050565b600080604083850312156111ca576111c9610e77565b5b600083013567ffffffffffffffff8111156111e8576111e7610e7c565b5b6111f485828601610f99565b92505060206112058582860161119e565b9150509250929050565b61121881611030565b82525050565b6000602082019050611233600083018461120f565b92915050565b61124281611051565b811461124d57600080fd5b50565b60008135905061125f81611239565b92915050565b61126e81610e39565b811461127957600080fd5b50565b60008135905061128b81611265565b92915050565b6000806000606084860312156112aa576112a9610e77565b5b600084013567ffffffffffffffff8111156112c8576112c7610e7c565b5b6112d486828701610f99565b93505060206112e586828701611250565b92505060406112f68682870161127c565b9150509250925092565b600081519050919050565b600081905092915050565b60005b83811015611334578082015181840152602081019050611319565b60008484015250505050565b600061134b82611300565b611355818561130b565b9350611365818560208601611316565b80840191505092915050565b600061137d8284611340565b915081905092915050565b600082825260208201905092915050565b7f4e616d65206e6f74206f776e6564000000000000000000000000000000000000600082015250565b60006113cf600e83611388565b91506113da82611399565b602082019050919050565b600060208201905081810360008301526113fe816113c2565b9050919050565b7f4e6f7420616c6c6f776564000000000000000000000000000000000000000000600082015250565b600061143b600b83611388565b915061144682611405565b602082019050919050565b6000602082019050818103600083015261146a8161142e565b9050919050565b7f4e487b7100000000000000000000000000000000000000000000000000000000600052601160045260246000fd5b60006114ab82611173565b91506114b683611173565b92508282026114c481611173565b91508082146114d6576114d5611471565b5b5092915050565b7f4e487b7100000000000000000000000000000000000000000000000000000000600052601260045260246000fd5b600061151782610e39565b915061152283610e39565b925082611532576115316114dd565b5b828206905092915050565b7f696e6372656173652074746c0000000000000000000000000000000000000000600082015250565b6000611573600c83611388565b915061157e8261153d565b602082019050919050565b600060208201905081810360008301526115a281611566565b9050919050565b60006115b482610e39565b91506115bf83610e39565b9250826115cf576115ce6114dd565b5b828204905092915050565b7f57726f6e6720616d6f756e740000000000000000000000000000000000000000600082015250565b6000611610600c83611388565b915061161b826115da565b602082019050919050565b6000602082019050818103600083015261163f81611603565b9050919050565b600061165182610e39565b915061165c83610e39565b925082820190508082111561167457611673611471565b5b92915050565b600082825260208201905092915050565b600061169682611300565b6116a0818561167a565b93506116b0818560208601611316565b6116b981610e8b565b840191505092915050565b600060408201905081810360008301526116de818561168b565b90506116ed6020830184610e43565b9392505050565b7f4e6f742072656769737465726564000000000000000000000000000000000000600082015250565b600061172a600e83611388565b9150611735826116f4565b602082019050919050565b600060208201905081810360008301526117598161171d565b9050919050565b600061176b82610e39565b915061177683610e39565b925082820261178481610e39565b9150828204841483151761179b5761179a611471565b5b5092915050565b7f4e616d6520616c7265616479206f776e65640000000000000000000000000000600082015250565b60006117d8601283611388565b91506117e3826117a2565b602082019050919050565b60006020820190508181036000830152611807816117cb565b9050919050565b7f4164642074746c00000000000000000000000000000000000000000000000000600082015250565b6000611844600783611388565b915061184f8261180e565b602082019050919050565b6000602082019050818103600083015261187381611837565b9050919050565b60006040820190508181036000830152611894818561168b565b90506118a3602083018461120f565b939250505056fea2646970667358221220ee136526eef5d6667e18d7fea8b2a18ac89b32df41449d8df192acaf9ef5cb8564736f6c63430008110033",
  "linkReferences": {},
  "deployedLinkReferences": {}
}