{
  "contracts/fns.sol": {
    "FNS": {
      "abi": [
        {
          "anonymous": false,
          "inputs": [
            {
              "indexed": false,
              "internalType": "bytes",
              "name": "_name",
              "type": "bytes"
            },
            {
              "indexed": false,
              "internalType": "address",
              "name": "owner",
              "type": "address"
            }
          ],
          "name": "NameRegistered",
          "type": "event"
        },
        {
          "anonymous": false,
          "inputs": [
            {
              "indexed": false,
              "internalType": "bytes",
              "name": "_name",
              "type": "bytes"
            },
            {
              "indexed": false,
              "internalType": "address",
              "name": "_newOwner",
              "type": "address"
            }
          ],
          "name": "NewOwner",
          "type": "event"
        },
        {
          "anonymous": false,
          "inputs": [
            {
              "indexed": false,
              "internalType": "bytes",
              "name": "_name",
              "type": "bytes"
            },
            {
              "indexed": false,
              "internalType": "uint256",
              "name": "_newTtl",
              "type": "uint256"
            }
          ],
          "name": "TtlAdded",
          "type": "event"
        },
        {
          "inputs": [
            {
              "internalType": "bytes",
              "name": "_name",
              "type": "bytes"
            },
            {
              "internalType": "uint64",
              "name": "_extendedTtl",
              "type": "uint64"
            }
          ],
          "name": "addTtl",
          "outputs": [],
          "stateMutability": "payable",
          "type": "function"
        },
        {
          "inputs": [
            {
              "internalType": "bytes",
              "name": "_name",
              "type": "bytes"
            }
          ],
          "name": "checkName",
          "outputs": [
            {
              "components": [
                {
                  "internalType": "address",
                  "name": "owner",
                  "type": "address"
                },
                {
                  "internalType": "address",
                  "name": "secondController",
                  "type": "address"
                },
                {
                  "internalType": "bool",
                  "name": "isValidator",
                  "type": "bool"
                },
                {
                  "internalType": "uint256",
                  "name": "ttl",
                  "type": "uint256"
                }
              ],
              "internalType": "struct FNS.NameInfo",
              "name": "info",
              "type": "tuple"
            }
          ],
          "stateMutability": "view",
          "type": "function"
        },
        {
          "inputs": [
            {
              "internalType": "bytes",
              "name": "_name",
              "type": "bytes"
            }
          ],
          "name": "getNameAddress",
          "outputs": [
            {
              "internalType": "address",
              "name": "owner",
              "type": "address"
            }
          ],
          "stateMutability": "view",
          "type": "function"
        },
        {
          "inputs": [],
          "name": "getPriceTag",
          "outputs": [
            {
              "internalType": "uint256",
              "name": "_priceTag",
              "type": "uint256"
            }
          ],
          "stateMutability": "view",
          "type": "function"
        },
        {
          "inputs": [
            {
              "internalType": "bytes",
              "name": "_name",
              "type": "bytes"
            },
            {
              "internalType": "bool",
              "name": "_isValidator",
              "type": "bool"
            },
            {
              "internalType": "uint256",
              "name": "_ttl",
              "type": "uint256"
            }
          ],
          "name": "registerName",
          "outputs": [],
          "stateMutability": "payable",
          "type": "function"
        },
        {
          "inputs": [
            {
              "internalType": "bytes",
              "name": "_name",
              "type": "bytes"
            },
            {
              "internalType": "address",
              "name": "_newOwner",
              "type": "address"
            }
          ],
          "name": "setNewOwner",
          "outputs": [],
          "stateMutability": "nonpayable",
          "type": "function"
        },
        {
          "inputs": [
            {
              "internalType": "bytes",
              "name": "_name",
              "type": "bytes"
            },
            {
              "internalType": "address",
              "name": "_controller",
              "type": "address"
            }
          ],
          "name": "setSecondController",
          "outputs": [],
          "stateMutability": "nonpayable",
          "type": "function"
        }
      ],
      "evm": {
        "bytecode": {
          "linkReferences": {},
          "object": "608060405267016345785d8a00006000557f66696c0000000000000000000000000000000000000000000000000000000000600160006101000a81548162ffffff021916908360e81c02179055506301e1338060025534801561006157600080fd5b506118e0806100716000396000f3fe6080604052600436106100705760003560e01c806383e109cb1161004e57806383e109cb14610106578063b0936fa314610122578063c2d43f141461015f578063e778c5bc1461017b57610070565b806318a8f238146100755780635721cc4b146100a057806376912800146100dd575b600080fd5b34801561008157600080fd5b5061008a6101a4565b6040516100979190610e52565b60405180910390f35b3480156100ac57600080fd5b506100c760048036038101906100c29190610fc7565b6101ad565b6040516100d491906110d0565b60405180910390f35b3480156100e957600080fd5b5061010460048036038101906100ff9190611117565b6102b6565b005b610120600480360381019061011b91906111b3565b6104f2565b005b34801561012e57600080fd5b5061014960048036038101906101449190610fc7565b610884565b604051610156919061121e565b60405180910390f35b61017960048036038101906101749190611291565b61097e565b005b34801561018757600080fd5b506101a2600480360381019061019d9190611117565b610c1d565b005b60008054905090565b6101b5610de3565b6003826040516101c59190611371565b90815260200160405180910390206040518060800160405290816000820160009054906101000a900473ffffffffffffffffffffffffffffffffffffffff1673ffffffffffffffffffffffffffffffffffffffff1673ffffffffffffffffffffffffffffffffffffffff1681526020016001820160009054906101000a900473ffffffffffffffffffffffffffffffffffffffff1673ffffffffffffffffffffffffffffffffffffffff1673ffffffffffffffffffffffffffffffffffffffff1681526020016001820160149054906101000a900460ff161515151581526020016002820154815250509050919050565b81600073ffffffffffffffffffffffffffffffffffffffff166003826040516102df9190611371565b908152602001604051809103902060000160009054906101000a900473ffffffffffffffffffffffffffffffffffffffff1673ffffffffffffffffffffffffffffffffffffffff1603610367576040517f08c379a000000000000000000000000000000000000000000000000000000000815260040161035e906113e5565b60405180910390fd5b3373ffffffffffffffffffffffffffffffffffffffff1660038260405161038e9190611371565b908152602001604051809103902060000160009054906101000a900473ffffffffffffffffffffffffffffffffffffffff1673ffffffffffffffffffffffffffffffffffffffff16148061044e57503373ffffffffffffffffffffffffffffffffffffffff166003826040516104049190611371565b908152602001604051809103902060010160009054906101000a900473ffffffffffffffffffffffffffffffffffffffff1673ffffffffffffffffffffffffffffffffffffffff16145b61048d576040517f08c379a000000000000000000000000000000000000000000000000000000000815260040161048490611451565b60405180910390fd5b8160038460405161049e9190611371565b908152602001604051809103902060010160006101000a81548173ffffffffffffffffffffffffffffffffffffffff021916908373ffffffffffffffffffffffffffffffffffffffff160217905550505050565b81600073ffffffffffffffffffffffffffffffffffffffff1660038260405161051b9190611371565b908152602001604051809103902060000160009054906101000a900473ffffffffffffffffffffffffffffffffffffffff1673ffffffffffffffffffffffffffffffffffffffff16036105a3576040517f08c379a000000000000000000000000000000000000000000000000000000000815260040161059a906113e5565b60405180910390fd5b3373ffffffffffffffffffffffffffffffffffffffff166003826040516105ca9190611371565b908152602001604051809103902060000160009054906101000a900473ffffffffffffffffffffffffffffffffffffffff1673ffffffffffffffffffffffffffffffffffffffff16148061068a57503373ffffffffffffffffffffffffffffffffffffffff166003826040516106409190611371565b908152602001604051809103902060010160009054906101000a900473ffffffffffffffffffffffffffffffffffffffff1673ffffffffffffffffffffffffffffffffffffffff16145b6106c9576040517f08c379a00000000000000000000000000000000000000000000000000000000081526004016106c090611451565b60405180910390fd5b6000603c806018856106db91906114a0565b6106e591906114a0565b6106ef91906114a0565b67ffffffffffffffff16905060006002548261070b919061150c565b148015610719575060025481115b610758576040517f08c379a000000000000000000000000000000000000000000000000000000000815260040161074f90611589565b60405180910390fd5b6000543461076691906115a9565b6002548261077491906115a9565b146107b4576040517f08c379a00000000000000000000000000000000000000000000000000000000081526004016107ab90611626565b60405180910390fd5b8267ffffffffffffffff166003856040516107cf9190611371565b9081526020016040518091039020600201546107eb9190611646565b6003856040516107fb9190611371565b9081526020016040518091039020600201819055507e9e86eda26e05f8909f5e7abc1ff6e2be2bb278d4f9198286ca3f44f101d0c0848467ffffffffffffffff1660038760405161084c9190611371565b9081526020016040518091039020600201546108689190611646565b6040516108769291906116c4565b60405180910390a150505050565b60008073ffffffffffffffffffffffffffffffffffffffff166003836040516108ad9190611371565b908152602001604051809103902060000160009054906101000a900473ffffffffffffffffffffffffffffffffffffffff1673ffffffffffffffffffffffffffffffffffffffff1603610935576040517f08c379a000000000000000000000000000000000000000000000000000000000815260040161092c90611740565b60405180910390fd5b6003826040516109459190611371565b908152602001604051809103902060000160009054906101000a900473ffffffffffffffffffffffffffffffffffffffff169050919050565b60005434146109c2576040517f08c379a00000000000000000000000000000000000000000000000000000000081526004016109b990611626565b60405180910390fd5b6000603c806018846109d49190611760565b6109de9190611760565b6109e89190611760565b9050426003856040516109fb9190611371565b90815260200160405180910390206002015410610a4d576040517f08c379a0000000000000000000000000000000000000000000000000000000008152600401610a44906117ee565b60405180910390fd5b600060025482610a5d919061150c565b148015610a6c57506002548110155b610aab576040517f08c379a0000000000000000000000000000000000000000000000000000000008152600401610aa29061185a565b60405180910390fd5b60405180608001604052803373ffffffffffffffffffffffffffffffffffffffff1681526020013373ffffffffffffffffffffffffffffffffffffffff16815260200184151581526020018242610b029190611646565b815250600385604051610b159190611371565b908152602001604051809103902060008201518160000160006101000a81548173ffffffffffffffffffffffffffffffffffffffff021916908373ffffffffffffffffffffffffffffffffffffffff16021790555060208201518160010160006101000a81548173ffffffffffffffffffffffffffffffffffffffff021916908373ffffffffffffffffffffffffffffffffffffffff16021790555060408201518160010160146101000a81548160ff021916908315150217905550606082015181600201559050507f206f908f69e140eefeee30a932351e83d0e27e3a28f59a5a2652651eb6dfd8ea8433604051610c0f92919061187a565b60405180910390a150505050565b600073ffffffffffffffffffffffffffffffffffffffff16600383604051610c459190611371565b908152602001604051809103902060000160009054906101000a900473ffffffffffffffffffffffffffffffffffffffff1673ffffffffffffffffffffffffffffffffffffffff1614158015610d0757503373ffffffffffffffffffffffffffffffffffffffff16600383604051610cbd9190611371565b908152602001604051809103902060000160009054906101000a900473ffffffffffffffffffffffffffffffffffffffff1673ffffffffffffffffffffffffffffffffffffffff16145b610d46576040517f08c379a0000000000000000000000000000000000000000000000000000000008152600401610d3d90611451565b60405180910390fd5b80600383604051610d579190611371565b908152602001604051809103902060000160006101000a81548173ffffffffffffffffffffffffffffffffffffffff021916908373ffffffffffffffffffffffffffffffffffffffff1602179055507ff0bf3cb0573628f31c07648da039ecc21e6547f9d6adb80fe9595321676cdd088282604051610dd792919061187a565b60405180910390a15050565b6040518060800160405280600073ffffffffffffffffffffffffffffffffffffffff168152602001600073ffffffffffffffffffffffffffffffffffffffff168152602001600015158152602001600081525090565b6000819050919050565b610e4c81610e39565b82525050565b6000602082019050610e676000830184610e43565b92915050565b6000604051905090565b600080fd5b600080fd5b600080fd5b600080fd5b6000601f19601f8301169050919050565b7f4e487b7100000000000000000000000000000000000000000000000000000000600052604160045260246000fd5b610ed482610e8b565b810181811067ffffffffffffffff82111715610ef357610ef2610e9c565b5b80604052505050565b6000610f06610e6d565b9050610f128282610ecb565b919050565b600067ffffffffffffffff821115610f3257610f31610e9c565b5b610f3b82610e8b565b9050602081019050919050565b82818337600083830152505050565b6000610f6a610f6584610f17565b610efc565b905082815260208101848484011115610f8657610f85610e86565b5b610f91848285610f48565b509392505050565b600082601f830112610fae57610fad610e81565b5b8135610fbe848260208601610f57565b91505092915050565b600060208284031215610fdd57610fdc610e77565b5b600082013567ffffffffffffffff811115610ffb57610ffa610e7c565b5b61100784828501610f99565b91505092915050565b600073ffffffffffffffffffffffffffffffffffffffff82169050919050565b600061103b82611010565b9050919050565b61104b81611030565b82525050565b60008115159050919050565b61106681611051565b82525050565b61107581610e39565b82525050565b6080820160008201516110916000850182611042565b5060208201516110a46020850182611042565b5060408201516110b7604085018261105d565b5060608201516110ca606085018261106c565b50505050565b60006080820190506110e5600083018461107b565b92915050565b6110f481611030565b81146110ff57600080fd5b50565b600081359050611111816110eb565b92915050565b6000806040838503121561112e5761112d610e77565b5b600083013567ffffffffffffffff81111561114c5761114b610e7c565b5b61115885828601610f99565b925050602061116985828601611102565b9150509250929050565b600067ffffffffffffffff82169050919050565b61119081611173565b811461119b57600080fd5b50565b6000813590506111ad81611187565b92915050565b600080604083850312156111ca576111c9610e77565b5b600083013567ffffffffffffffff8111156111e8576111e7610e7c565b5b6111f485828601610f99565b92505060206112058582860161119e565b9150509250929050565b61121881611030565b82525050565b6000602082019050611233600083018461120f565b92915050565b61124281611051565b811461124d57600080fd5b50565b60008135905061125f81611239565b92915050565b61126e81610e39565b811461127957600080fd5b50565b60008135905061128b81611265565b92915050565b6000806000606084860312156112aa576112a9610e77565b5b600084013567ffffffffffffffff8111156112c8576112c7610e7c565b5b6112d486828701610f99565b93505060206112e586828701611250565b92505060406112f68682870161127c565b9150509250925092565b600081519050919050565b600081905092915050565b60005b83811015611334578082015181840152602081019050611319565b60008484015250505050565b600061134b82611300565b611355818561130b565b9350611365818560208601611316565b80840191505092915050565b600061137d8284611340565b915081905092915050565b600082825260208201905092915050565b7f4e616d65206e6f74206f776e6564000000000000000000000000000000000000600082015250565b60006113cf600e83611388565b91506113da82611399565b602082019050919050565b600060208201905081810360008301526113fe816113c2565b9050919050565b7f4e6f7420616c6c6f776564000000000000000000000000000000000000000000600082015250565b600061143b600b83611388565b915061144682611405565b602082019050919050565b6000602082019050818103600083015261146a8161142e565b9050919050565b7f4e487b7100000000000000000000000000000000000000000000000000000000600052601160045260246000fd5b60006114ab82611173565b91506114b683611173565b92508282026114c481611173565b91508082146114d6576114d5611471565b5b5092915050565b7f4e487b7100000000000000000000000000000000000000000000000000000000600052601260045260246000fd5b600061151782610e39565b915061152283610e39565b925082611532576115316114dd565b5b828206905092915050565b7f696e6372656173652074746c0000000000000000000000000000000000000000600082015250565b6000611573600c83611388565b915061157e8261153d565b602082019050919050565b600060208201905081810360008301526115a281611566565b9050919050565b60006115b482610e39565b91506115bf83610e39565b9250826115cf576115ce6114dd565b5b828204905092915050565b7f57726f6e6720616d6f756e740000000000000000000000000000000000000000600082015250565b6000611610600c83611388565b915061161b826115da565b602082019050919050565b6000602082019050818103600083015261163f81611603565b9050919050565b600061165182610e39565b915061165c83610e39565b925082820190508082111561167457611673611471565b5b92915050565b600082825260208201905092915050565b600061169682611300565b6116a0818561167a565b93506116b0818560208601611316565b6116b981610e8b565b840191505092915050565b600060408201905081810360008301526116de818561168b565b90506116ed6020830184610e43565b9392505050565b7f4e6f742072656769737465726564000000000000000000000000000000000000600082015250565b600061172a600e83611388565b9150611735826116f4565b602082019050919050565b600060208201905081810360008301526117598161171d565b9050919050565b600061176b82610e39565b915061177683610e39565b925082820261178481610e39565b9150828204841483151761179b5761179a611471565b5b5092915050565b7f4e616d6520616c7265616479206f776e65640000000000000000000000000000600082015250565b60006117d8601283611388565b91506117e3826117a2565b602082019050919050565b60006020820190508181036000830152611807816117cb565b9050919050565b7f4164642074746c00000000000000000000000000000000000000000000000000600082015250565b6000611844600783611388565b915061184f8261180e565b602082019050919050565b6000602082019050818103600083015261187381611837565b9050919050565b60006040820190508181036000830152611894818561168b565b90506118a3602083018461120f565b939250505056fea2646970667358221220ee136526eef5d6667e18d7fea8b2a18ac89b32df41449d8df192acaf9ef5cb8564736f6c63430008110033",
          "opcodes": "PUSH1 0x80 PUSH1 0x40 MSTORE PUSH8 0x16345785D8A0000 PUSH1 0x0 SSTORE PUSH32 0x66696C0000000000000000000000000000000000000000000000000000000000 PUSH1 0x1 PUSH1 0x0 PUSH2 0x100 EXP DUP2 SLOAD DUP2 PUSH3 0xFFFFFF MUL NOT AND SWAP1 DUP4 PUSH1 0xE8 SHR MUL OR SWAP1 SSTORE POP PUSH4 0x1E13380 PUSH1 0x2 SSTORE CALLVALUE DUP1 ISZERO PUSH2 0x61 JUMPI PUSH1 0x0 DUP1 REVERT JUMPDEST POP PUSH2 0x18E0 DUP1 PUSH2 0x71 PUSH1 0x0 CODECOPY PUSH1 0x0 RETURN INVALID PUSH1 0x80 PUSH1 0x40 MSTORE PUSH1 0x4 CALLDATASIZE LT PUSH2 0x70 JUMPI PUSH1 0x0 CALLDATALOAD PUSH1 0xE0 SHR DUP1 PUSH4 0x83E109CB GT PUSH2 0x4E JUMPI DUP1 PUSH4 0x83E109CB EQ PUSH2 0x106 JUMPI DUP1 PUSH4 0xB0936FA3 EQ PUSH2 0x122 JUMPI DUP1 PUSH4 0xC2D43F14 EQ PUSH2 0x15F JUMPI DUP1 PUSH4 0xE778C5BC EQ PUSH2 0x17B JUMPI PUSH2 0x70 JUMP JUMPDEST DUP1 PUSH4 0x18A8F238 EQ PUSH2 0x75 JUMPI DUP1 PUSH4 0x5721CC4B EQ PUSH2 0xA0 JUMPI DUP1 PUSH4 0x76912800 EQ PUSH2 0xDD JUMPI JUMPDEST PUSH1 0x0 DUP1 REVERT JUMPDEST CALLVALUE DUP1 ISZERO PUSH2 0x81 JUMPI PUSH1 0x0 DUP1 REVERT JUMPDEST POP PUSH2 0x8A PUSH2 0x1A4 JUMP JUMPDEST PUSH1 0x40 MLOAD PUSH2 0x97 SWAP2 SWAP1 PUSH2 0xE52 JUMP JUMPDEST PUSH1 0x40 MLOAD DUP1 SWAP2 SUB SWAP1 RETURN JUMPDEST CALLVALUE DUP1 ISZERO PUSH2 0xAC JUMPI PUSH1 0x0 DUP1 REVERT JUMPDEST POP PUSH2 0xC7 PUSH1 0x4 DUP1 CALLDATASIZE SUB DUP2 ADD SWAP1 PUSH2 0xC2 SWAP2 SWAP1 PUSH2 0xFC7 JUMP JUMPDEST PUSH2 0x1AD JUMP JUMPDEST PUSH1 0x40 MLOAD PUSH2 0xD4 SWAP2 SWAP1 PUSH2 0x10D0 JUMP JUMPDEST PUSH1 0x40 MLOAD DUP1 SWAP2 SUB SWAP1 RETURN JUMPDEST CALLVALUE DUP1 ISZERO PUSH2 0xE9 JUMPI PUSH1 0x0 DUP1 REVERT JUMPDEST POP PUSH2 0x104 PUSH1 0x4 DUP1 CALLDATASIZE SUB DUP2 ADD SWAP1 PUSH2 0xFF SWAP2 SWAP1 PUSH2 0x1117 JUMP JUMPDEST PUSH2 0x2B6 JUMP JUMPDEST STOP JUMPDEST PUSH2 0x120 PUSH1 0x4 DUP1 CALLDATASIZE SUB DUP2 ADD SWAP1 PUSH2 0x11B SWAP2 SWAP1 PUSH2 0x11B3 JUMP JUMPDEST PUSH2 0x4F2 JUMP JUMPDEST STOP JUMPDEST CALLVALUE DUP1 ISZERO PUSH2 0x12E JUMPI PUSH1 0x0 DUP1 REVERT JUMPDEST POP PUSH2 0x149 PUSH1 0x4 DUP1 CALLDATASIZE SUB DUP2 ADD SWAP1 PUSH2 0x144 SWAP2 SWAP1 PUSH2 0xFC7 JUMP JUMPDEST PUSH2 0x884 JUMP JUMPDEST PUSH1 0x40 MLOAD PUSH2 0x156 SWAP2 SWAP1 PUSH2 0x121E JUMP JUMPDEST PUSH1 0x40 MLOAD DUP1 SWAP2 SUB SWAP1 RETURN JUMPDEST PUSH2 0x179 PUSH1 0x4 DUP1 CALLDATASIZE SUB DUP2 ADD SWAP1 PUSH2 0x174 SWAP2 SWAP1 PUSH2 0x1291 JUMP JUMPDEST PUSH2 0x97E JUMP JUMPDEST STOP JUMPDEST CALLVALUE DUP1 ISZERO PUSH2 0x187 JUMPI PUSH1 0x0 DUP1 REVERT JUMPDEST POP PUSH2 0x1A2 PUSH1 0x4 DUP1 CALLDATASIZE SUB DUP2 ADD SWAP1 PUSH2 0x19D SWAP2 SWAP1 PUSH2 0x1117 JUMP JUMPDEST PUSH2 0xC1D JUMP JUMPDEST STOP JUMPDEST PUSH1 0x0 DUP1 SLOAD SWAP1 POP SWAP1 JUMP JUMPDEST PUSH2 0x1B5 PUSH2 0xDE3 JUMP JUMPDEST PUSH1 0x3 DUP3 PUSH1 0x40 MLOAD PUSH2 0x1C5 SWAP2 SWAP1 PUSH2 0x1371 JUMP JUMPDEST SWAP1 DUP2 MSTORE PUSH1 0x20 ADD PUSH1 0x40 MLOAD DUP1 SWAP2 SUB SWAP1 KECCAK256 PUSH1 0x40 MLOAD DUP1 PUSH1 0x80 ADD PUSH1 0x40 MSTORE SWAP1 DUP2 PUSH1 0x0 DUP3 ADD PUSH1 0x0 SWAP1 SLOAD SWAP1 PUSH2 0x100 EXP SWAP1 DIV PUSH20 0xFFFFFFFFFFFFFFFFFFFFFFFFFFFFFFFFFFFFFFFF AND PUSH20 0xFFFFFFFFFFFFFFFFFFFFFFFFFFFFFFFFFFFFFFFF AND PUSH20 0xFFFFFFFFFFFFFFFFFFFFFFFFFFFFFFFFFFFFFFFF AND DUP2 MSTORE PUSH1 0x20 ADD PUSH1 0x1 DUP3 ADD PUSH1 0x0 SWAP1 SLOAD SWAP1 PUSH2 0x100 EXP SWAP1 DIV PUSH20 0xFFFFFFFFFFFFFFFFFFFFFFFFFFFFFFFFFFFFFFFF AND PUSH20 0xFFFFFFFFFFFFFFFFFFFFFFFFFFFFFFFFFFFFFFFF AND PUSH20 0xFFFFFFFFFFFFFFFFFFFFFFFFFFFFFFFFFFFFFFFF AND DUP2 MSTORE PUSH1 0x20 ADD PUSH1 0x1 DUP3 ADD PUSH1 0x14 SWAP1 SLOAD SWAP1 PUSH2 0x100 EXP SWAP1 DIV PUSH1 0xFF AND ISZERO ISZERO ISZERO ISZERO DUP2 MSTORE PUSH1 0x20 ADD PUSH1 0x2 DUP3 ADD SLOAD DUP2 MSTORE POP POP SWAP1 POP SWAP2 SWAP1 POP JUMP JUMPDEST DUP2 PUSH1 0x0 PUSH20 0xFFFFFFFFFFFFFFFFFFFFFFFFFFFFFFFFFFFFFFFF AND PUSH1 0x3 DUP3 PUSH1 0x40 MLOAD PUSH2 0x2DF SWAP2 SWAP1 PUSH2 0x1371 JUMP JUMPDEST SWAP1 DUP2 MSTORE PUSH1 0x20 ADD PUSH1 0x40 MLOAD DUP1 SWAP2 SUB SWAP1 KECCAK256 PUSH1 0x0 ADD PUSH1 0x0 SWAP1 SLOAD SWAP1 PUSH2 0x100 EXP SWAP1 DIV PUSH20 0xFFFFFFFFFFFFFFFFFFFFFFFFFFFFFFFFFFFFFFFF AND PUSH20 0xFFFFFFFFFFFFFFFFFFFFFFFFFFFFFFFFFFFFFFFF AND SUB PUSH2 0x367 JUMPI PUSH1 0x40 MLOAD PUSH32 0x8C379A000000000000000000000000000000000000000000000000000000000 DUP2 MSTORE PUSH1 0x4 ADD PUSH2 0x35E SWAP1 PUSH2 0x13E5 JUMP JUMPDEST PUSH1 0x40 MLOAD DUP1 SWAP2 SUB SWAP1 REVERT JUMPDEST CALLER PUSH20 0xFFFFFFFFFFFFFFFFFFFFFFFFFFFFFFFFFFFFFFFF AND PUSH1 0x3 DUP3 PUSH1 0x40 MLOAD PUSH2 0x38E SWAP2 SWAP1 PUSH2 0x1371 JUMP JUMPDEST SWAP1 DUP2 MSTORE PUSH1 0x20 ADD PUSH1 0x40 MLOAD DUP1 SWAP2 SUB SWAP1 KECCAK256 PUSH1 0x0 ADD PUSH1 0x0 SWAP1 SLOAD SWAP1 PUSH2 0x100 EXP SWAP1 DIV PUSH20 0xFFFFFFFFFFFFFFFFFFFFFFFFFFFFFFFFFFFFFFFF AND PUSH20 0xFFFFFFFFFFFFFFFFFFFFFFFFFFFFFFFFFFFFFFFF AND EQ DUP1 PUSH2 0x44E JUMPI POP CALLER PUSH20 0xFFFFFFFFFFFFFFFFFFFFFFFFFFFFFFFFFFFFFFFF AND PUSH1 0x3 DUP3 PUSH1 0x40 MLOAD PUSH2 0x404 SWAP2 SWAP1 PUSH2 0x1371 JUMP JUMPDEST SWAP1 DUP2 MSTORE PUSH1 0x20 ADD PUSH1 0x40 MLOAD DUP1 SWAP2 SUB SWAP1 KECCAK256 PUSH1 0x1 ADD PUSH1 0x0 SWAP1 SLOAD SWAP1 PUSH2 0x100 EXP SWAP1 DIV PUSH20 0xFFFFFFFFFFFFFFFFFFFFFFFFFFFFFFFFFFFFFFFF AND PUSH20 0xFFFFFFFFFFFFFFFFFFFFFFFFFFFFFFFFFFFFFFFF AND EQ JUMPDEST PUSH2 0x48D JUMPI PUSH1 0x40 MLOAD PUSH32 0x8C379A000000000000000000000000000000000000000000000000000000000 DUP2 MSTORE PUSH1 0x4 ADD PUSH2 0x484 SWAP1 PUSH2 0x1451 JUMP JUMPDEST PUSH1 0x40 MLOAD DUP1 SWAP2 SUB SWAP1 REVERT JUMPDEST DUP2 PUSH1 0x3 DUP5 PUSH1 0x40 MLOAD PUSH2 0x49E SWAP2 SWAP1 PUSH2 0x1371 JUMP JUMPDEST SWAP1 DUP2 MSTORE PUSH1 0x20 ADD PUSH1 0x40 MLOAD DUP1 SWAP2 SUB SWAP1 KECCAK256 PUSH1 0x1 ADD PUSH1 0x0 PUSH2 0x100 EXP DUP2 SLOAD DUP2 PUSH20 0xFFFFFFFFFFFFFFFFFFFFFFFFFFFFFFFFFFFFFFFF MUL NOT AND SWAP1 DUP4 PUSH20 0xFFFFFFFFFFFFFFFFFFFFFFFFFFFFFFFFFFFFFFFF AND MUL OR SWAP1 SSTORE POP POP POP POP JUMP JUMPDEST DUP2 PUSH1 0x0 PUSH20 0xFFFFFFFFFFFFFFFFFFFFFFFFFFFFFFFFFFFFFFFF AND PUSH1 0x3 DUP3 PUSH1 0x40 MLOAD PUSH2 0x51B SWAP2 SWAP1 PUSH2 0x1371 JUMP JUMPDEST SWAP1 DUP2 MSTORE PUSH1 0x20 ADD PUSH1 0x40 MLOAD DUP1 SWAP2 SUB SWAP1 KECCAK256 PUSH1 0x0 ADD PUSH1 0x0 SWAP1 SLOAD SWAP1 PUSH2 0x100 EXP SWAP1 DIV PUSH20 0xFFFFFFFFFFFFFFFFFFFFFFFFFFFFFFFFFFFFFFFF AND PUSH20 0xFFFFFFFFFFFFFFFFFFFFFFFFFFFFFFFFFFFFFFFF AND SUB PUSH2 0x5A3 JUMPI PUSH1 0x40 MLOAD PUSH32 0x8C379A000000000000000000000000000000000000000000000000000000000 DUP2 MSTORE PUSH1 0x4 ADD PUSH2 0x59A SWAP1 PUSH2 0x13E5 JUMP JUMPDEST PUSH1 0x40 MLOAD DUP1 SWAP2 SUB SWAP1 REVERT JUMPDEST CALLER PUSH20 0xFFFFFFFFFFFFFFFFFFFFFFFFFFFFFFFFFFFFFFFF AND PUSH1 0x3 DUP3 PUSH1 0x40 MLOAD PUSH2 0x5CA SWAP2 SWAP1 PUSH2 0x1371 JUMP JUMPDEST SWAP1 DUP2 MSTORE PUSH1 0x20 ADD PUSH1 0x40 MLOAD DUP1 SWAP2 SUB SWAP1 KECCAK256 PUSH1 0x0 ADD PUSH1 0x0 SWAP1 SLOAD SWAP1 PUSH2 0x100 EXP SWAP1 DIV PUSH20 0xFFFFFFFFFFFFFFFFFFFFFFFFFFFFFFFFFFFFFFFF AND PUSH20 0xFFFFFFFFFFFFFFFFFFFFFFFFFFFFFFFFFFFFFFFF AND EQ DUP1 PUSH2 0x68A JUMPI POP CALLER PUSH20 0xFFFFFFFFFFFFFFFFFFFFFFFFFFFFFFFFFFFFFFFF AND PUSH1 0x3 DUP3 PUSH1 0x40 MLOAD PUSH2 0x640 SWAP2 SWAP1 PUSH2 0x1371 JUMP JUMPDEST SWAP1 DUP2 MSTORE PUSH1 0x20 ADD PUSH1 0x40 MLOAD DUP1 SWAP2 SUB SWAP1 KECCAK256 PUSH1 0x1 ADD PUSH1 0x0 SWAP1 SLOAD SWAP1 PUSH2 0x100 EXP SWAP1 DIV PUSH20 0xFFFFFFFFFFFFFFFFFFFFFFFFFFFFFFFFFFFFFFFF AND PUSH20 0xFFFFFFFFFFFFFFFFFFFFFFFFFFFFFFFFFFFFFFFF AND EQ JUMPDEST PUSH2 0x6C9 JUMPI PUSH1 0x40 MLOAD PUSH32 0x8C379A000000000000000000000000000000000000000000000000000000000 DUP2 MSTORE PUSH1 0x4 ADD PUSH2 0x6C0 SWAP1 PUSH2 0x1451 JUMP JUMPDEST PUSH1 0x40 MLOAD DUP1 SWAP2 SUB SWAP1 REVERT JUMPDEST PUSH1 0x0 PUSH1 0x3C DUP1 PUSH1 0x18 DUP6 PUSH2 0x6DB SWAP2 SWAP1 PUSH2 0x14A0 JUMP JUMPDEST PUSH2 0x6E5 SWAP2 SWAP1 PUSH2 0x14A0 JUMP JUMPDEST PUSH2 0x6EF SWAP2 SWAP1 PUSH2 0x14A0 JUMP JUMPDEST PUSH8 0xFFFFFFFFFFFFFFFF AND SWAP1 POP PUSH1 0x0 PUSH1 0x2 SLOAD DUP3 PUSH2 0x70B SWAP2 SWAP1 PUSH2 0x150C JUMP JUMPDEST EQ DUP1 ISZERO PUSH2 0x719 JUMPI POP PUSH1 0x2 SLOAD DUP2 GT JUMPDEST PUSH2 0x758 JUMPI PUSH1 0x40 MLOAD PUSH32 0x8C379A000000000000000000000000000000000000000000000000000000000 DUP2 MSTORE PUSH1 0x4 ADD PUSH2 0x74F SWAP1 PUSH2 0x1589 JUMP JUMPDEST PUSH1 0x40 MLOAD DUP1 SWAP2 SUB SWAP1 REVERT JUMPDEST PUSH1 0x0 SLOAD CALLVALUE PUSH2 0x766 SWAP2 SWAP1 PUSH2 0x15A9 JUMP JUMPDEST PUSH1 0x2 SLOAD DUP3 PUSH2 0x774 SWAP2 SWAP1 PUSH2 0x15A9 JUMP JUMPDEST EQ PUSH2 0x7B4 JUMPI PUSH1 0x40 MLOAD PUSH32 0x8C379A000000000000000000000000000000000000000000000000000000000 DUP2 MSTORE PUSH1 0x4 ADD PUSH2 0x7AB SWAP1 PUSH2 0x1626 JUMP JUMPDEST PUSH1 0x40 MLOAD DUP1 SWAP2 SUB SWAP1 REVERT JUMPDEST DUP3 PUSH8 0xFFFFFFFFFFFFFFFF AND PUSH1 0x3 DUP6 PUSH1 0x40 MLOAD PUSH2 0x7CF SWAP2 SWAP1 PUSH2 0x1371 JUMP JUMPDEST SWAP1 DUP2 MSTORE PUSH1 0x20 ADD PUSH1 0x40 MLOAD DUP1 SWAP2 SUB SWAP1 KECCAK256 PUSH1 0x2 ADD SLOAD PUSH2 0x7EB SWAP2 SWAP1 PUSH2 0x1646 JUMP JUMPDEST PUSH1 0x3 DUP6 PUSH1 0x40 MLOAD PUSH2 0x7FB SWAP2 SWAP1 PUSH2 0x1371 JUMP JUMPDEST SWAP1 DUP2 MSTORE PUSH1 0x20 ADD PUSH1 0x40 MLOAD DUP1 SWAP2 SUB SWAP1 KECCAK256 PUSH1 0x2 ADD DUP2 SWAP1 SSTORE POP PUSH31 0x9E86EDA26E05F8909F5E7ABC1FF6E2BE2BB278D4F9198286CA3F44F101D0C0 DUP5 DUP5 PUSH8 0xFFFFFFFFFFFFFFFF AND PUSH1 0x3 DUP8 PUSH1 0x40 MLOAD PUSH2 0x84C SWAP2 SWAP1 PUSH2 0x1371 JUMP JUMPDEST SWAP1 DUP2 MSTORE PUSH1 0x20 ADD PUSH1 0x40 MLOAD DUP1 SWAP2 SUB SWAP1 KECCAK256 PUSH1 0x2 ADD SLOAD PUSH2 0x868 SWAP2 SWAP1 PUSH2 0x1646 JUMP JUMPDEST PUSH1 0x40 MLOAD PUSH2 0x876 SWAP3 SWAP2 SWAP1 PUSH2 0x16C4 JUMP JUMPDEST PUSH1 0x40 MLOAD DUP1 SWAP2 SUB SWAP1 LOG1 POP POP POP POP JUMP JUMPDEST PUSH1 0x0 DUP1 PUSH20 0xFFFFFFFFFFFFFFFFFFFFFFFFFFFFFFFFFFFFFFFF AND PUSH1 0x3 DUP4 PUSH1 0x40 MLOAD PUSH2 0x8AD SWAP2 SWAP1 PUSH2 0x1371 JUMP JUMPDEST SWAP1 DUP2 MSTORE PUSH1 0x20 ADD PUSH1 0x40 MLOAD DUP1 SWAP2 SUB SWAP1 KECCAK256 PUSH1 0x0 ADD PUSH1 0x0 SWAP1 SLOAD SWAP1 PUSH2 0x100 EXP SWAP1 DIV PUSH20 0xFFFFFFFFFFFFFFFFFFFFFFFFFFFFFFFFFFFFFFFF AND PUSH20 0xFFFFFFFFFFFFFFFFFFFFFFFFFFFFFFFFFFFFFFFF AND SUB PUSH2 0x935 JUMPI PUSH1 0x40 MLOAD PUSH32 0x8C379A000000000000000000000000000000000000000000000000000000000 DUP2 MSTORE PUSH1 0x4 ADD PUSH2 0x92C SWAP1 PUSH2 0x1740 JUMP JUMPDEST PUSH1 0x40 MLOAD DUP1 SWAP2 SUB SWAP1 REVERT JUMPDEST PUSH1 0x3 DUP3 PUSH1 0x40 MLOAD PUSH2 0x945 SWAP2 SWAP1 PUSH2 0x1371 JUMP JUMPDEST SWAP1 DUP2 MSTORE PUSH1 0x20 ADD PUSH1 0x40 MLOAD DUP1 SWAP2 SUB SWAP1 KECCAK256 PUSH1 0x0 ADD PUSH1 0x0 SWAP1 SLOAD SWAP1 PUSH2 0x100 EXP SWAP1 DIV PUSH20 0xFFFFFFFFFFFFFFFFFFFFFFFFFFFFFFFFFFFFFFFF AND SWAP1 POP SWAP2 SWAP1 POP JUMP JUMPDEST PUSH1 0x0 SLOAD CALLVALUE EQ PUSH2 0x9C2 JUMPI PUSH1 0x40 MLOAD PUSH32 0x8C379A000000000000000000000000000000000000000000000000000000000 DUP2 MSTORE PUSH1 0x4 ADD PUSH2 0x9B9 SWAP1 PUSH2 0x1626 JUMP JUMPDEST PUSH1 0x40 MLOAD DUP1 SWAP2 SUB SWAP1 REVERT JUMPDEST PUSH1 0x0 PUSH1 0x3C DUP1 PUSH1 0x18 DUP5 PUSH2 0x9D4 SWAP2 SWAP1 PUSH2 0x1760 JUMP JUMPDEST PUSH2 0x9DE SWAP2 SWAP1 PUSH2 0x1760 JUMP JUMPDEST PUSH2 0x9E8 SWAP2 SWAP1 PUSH2 0x1760 JUMP JUMPDEST SWAP1 POP TIMESTAMP PUSH1 0x3 DUP6 PUSH1 0x40 MLOAD PUSH2 0x9FB SWAP2 SWAP1 PUSH2 0x1371 JUMP JUMPDEST SWAP1 DUP2 MSTORE PUSH1 0x20 ADD PUSH1 0x40 MLOAD DUP1 SWAP2 SUB SWAP1 KECCAK256 PUSH1 0x2 ADD SLOAD LT PUSH2 0xA4D JUMPI PUSH1 0x40 MLOAD PUSH32 0x8C379A000000000000000000000000000000000000000000000000000000000 DUP2 MSTORE PUSH1 0x4 ADD PUSH2 0xA44 SWAP1 PUSH2 0x17EE JUMP JUMPDEST PUSH1 0x40 MLOAD DUP1 SWAP2 SUB SWAP1 REVERT JUMPDEST PUSH1 0x0 PUSH1 0x2 SLOAD DUP3 PUSH2 0xA5D SWAP2 SWAP1 PUSH2 0x150C JUMP JUMPDEST EQ DUP1 ISZERO PUSH2 0xA6C JUMPI POP PUSH1 0x2 SLOAD DUP2 LT ISZERO JUMPDEST PUSH2 0xAAB JUMPI PUSH1 0x40 MLOAD PUSH32 0x8C379A000000000000000000000000000000000000000000000000000000000 DUP2 MSTORE PUSH1 0x4 ADD PUSH2 0xAA2 SWAP1 PUSH2 0x185A JUMP JUMPDEST PUSH1 0x40 MLOAD DUP1 SWAP2 SUB SWAP1 REVERT JUMPDEST PUSH1 0x40 MLOAD DUP1 PUSH1 0x80 ADD PUSH1 0x40 MSTORE DUP1 CALLER PUSH20 0xFFFFFFFFFFFFFFFFFFFFFFFFFFFFFFFFFFFFFFFF AND DUP2 MSTORE PUSH1 0x20 ADD CALLER PUSH20 0xFFFFFFFFFFFFFFFFFFFFFFFFFFFFFFFFFFFFFFFF AND DUP2 MSTORE PUSH1 0x20 ADD DUP5 ISZERO ISZERO DUP2 MSTORE PUSH1 0x20 ADD DUP3 TIMESTAMP PUSH2 0xB02 SWAP2 SWAP1 PUSH2 0x1646 JUMP JUMPDEST DUP2 MSTORE POP PUSH1 0x3 DUP6 PUSH1 0x40 MLOAD PUSH2 0xB15 SWAP2 SWAP1 PUSH2 0x1371 JUMP JUMPDEST SWAP1 DUP2 MSTORE PUSH1 0x20 ADD PUSH1 0x40 MLOAD DUP1 SWAP2 SUB SWAP1 KECCAK256 PUSH1 0x0 DUP3 ADD MLOAD DUP2 PUSH1 0x0 ADD PUSH1 0x0 PUSH2 0x100 EXP DUP2 SLOAD DUP2 PUSH20 0xFFFFFFFFFFFFFFFFFFFFFFFFFFFFFFFFFFFFFFFF MUL NOT AND SWAP1 DUP4 PUSH20 0xFFFFFFFFFFFFFFFFFFFFFFFFFFFFFFFFFFFFFFFF AND MUL OR SWAP1 SSTORE POP PUSH1 0x20 DUP3 ADD MLOAD DUP2 PUSH1 0x1 ADD PUSH1 0x0 PUSH2 0x100 EXP DUP2 SLOAD DUP2 PUSH20 0xFFFFFFFFFFFFFFFFFFFFFFFFFFFFFFFFFFFFFFFF MUL NOT AND SWAP1 DUP4 PUSH20 0xFFFFFFFFFFFFFFFFFFFFFFFFFFFFFFFFFFFFFFFF AND MUL OR SWAP1 SSTORE POP PUSH1 0x40 DUP3 ADD MLOAD DUP2 PUSH1 0x1 ADD PUSH1 0x14 PUSH2 0x100 EXP DUP2 SLOAD DUP2 PUSH1 0xFF MUL NOT AND SWAP1 DUP4 ISZERO ISZERO MUL OR SWAP1 SSTORE POP PUSH1 0x60 DUP3 ADD MLOAD DUP2 PUSH1 0x2 ADD SSTORE SWAP1 POP POP PUSH32 0x206F908F69E140EEFEEE30A932351E83D0E27E3A28F59A5A2652651EB6DFD8EA DUP5 CALLER PUSH1 0x40 MLOAD PUSH2 0xC0F SWAP3 SWAP2 SWAP1 PUSH2 0x187A JUMP JUMPDEST PUSH1 0x40 MLOAD DUP1 SWAP2 SUB SWAP1 LOG1 POP POP POP POP JUMP JUMPDEST PUSH1 0x0 PUSH20 0xFFFFFFFFFFFFFFFFFFFFFFFFFFFFFFFFFFFFFFFF AND PUSH1 0x3 DUP4 PUSH1 0x40 MLOAD PUSH2 0xC45 SWAP2 SWAP1 PUSH2 0x1371 JUMP JUMPDEST SWAP1 DUP2 MSTORE PUSH1 0x20 ADD PUSH1 0x40 MLOAD DUP1 SWAP2 SUB SWAP1 KECCAK256 PUSH1 0x0 ADD PUSH1 0x0 SWAP1 SLOAD SWAP1 PUSH2 0x100 EXP SWAP1 DIV PUSH20 0xFFFFFFFFFFFFFFFFFFFFFFFFFFFFFFFFFFFFFFFF AND PUSH20 0xFFFFFFFFFFFFFFFFFFFFFFFFFFFFFFFFFFFFFFFF AND EQ ISZERO DUP1 ISZERO PUSH2 0xD07 JUMPI POP CALLER PUSH20 0xFFFFFFFFFFFFFFFFFFFFFFFFFFFFFFFFFFFFFFFF AND PUSH1 0x3 DUP4 PUSH1 0x40 MLOAD PUSH2 0xCBD SWAP2 SWAP1 PUSH2 0x1371 JUMP JUMPDEST SWAP1 DUP2 MSTORE PUSH1 0x20 ADD PUSH1 0x40 MLOAD DUP1 SWAP2 SUB SWAP1 KECCAK256 PUSH1 0x0 ADD PUSH1 0x0 SWAP1 SLOAD SWAP1 PUSH2 0x100 EXP SWAP1 DIV PUSH20 0xFFFFFFFFFFFFFFFFFFFFFFFFFFFFFFFFFFFFFFFF AND PUSH20 0xFFFFFFFFFFFFFFFFFFFFFFFFFFFFFFFFFFFFFFFF AND EQ JUMPDEST PUSH2 0xD46 JUMPI PUSH1 0x40 MLOAD PUSH32 0x8C379A000000000000000000000000000000000000000000000000000000000 DUP2 MSTORE PUSH1 0x4 ADD PUSH2 0xD3D SWAP1 PUSH2 0x1451 JUMP JUMPDEST PUSH1 0x40 MLOAD DUP1 SWAP2 SUB SWAP1 REVERT JUMPDEST DUP1 PUSH1 0x3 DUP4 PUSH1 0x40 MLOAD PUSH2 0xD57 SWAP2 SWAP1 PUSH2 0x1371 JUMP JUMPDEST SWAP1 DUP2 MSTORE PUSH1 0x20 ADD PUSH1 0x40 MLOAD DUP1 SWAP2 SUB SWAP1 KECCAK256 PUSH1 0x0 ADD PUSH1 0x0 PUSH2 0x100 EXP DUP2 SLOAD DUP2 PUSH20 0xFFFFFFFFFFFFFFFFFFFFFFFFFFFFFFFFFFFFFFFF MUL NOT AND SWAP1 DUP4 PUSH20 0xFFFFFFFFFFFFFFFFFFFFFFFFFFFFFFFFFFFFFFFF AND MUL OR SWAP1 SSTORE POP PUSH32 0xF0BF3CB0573628F31C07648DA039ECC21E6547F9D6ADB80FE9595321676CDD08 DUP3 DUP3 PUSH1 0x40 MLOAD PUSH2 0xDD7 SWAP3 SWAP2 SWAP1 PUSH2 0x187A JUMP JUMPDEST PUSH1 0x40 MLOAD DUP1 SWAP2 SUB SWAP1 LOG1 POP POP JUMP JUMPDEST PUSH1 0x40 MLOAD DUP1 PUSH1 0x80 ADD PUSH1 0x40 MSTORE DUP1 PUSH1 0x0 PUSH20 0xFFFFFFFFFFFFFFFFFFFFFFFFFFFFFFFFFFFFFFFF AND DUP2 MSTORE PUSH1 0x20 ADD PUSH1 0x0 PUSH20 0xFFFFFFFFFFFFFFFFFFFFFFFFFFFFFFFFFFFFFFFF AND DUP2 MSTORE PUSH1 0x20 ADD PUSH1 0x0 ISZERO ISZERO DUP2 MSTORE PUSH1 0x20 ADD PUSH1 0x0 DUP2 MSTORE POP SWAP1 JUMP JUMPDEST PUSH1 0x0 DUP2 SWAP1 POP SWAP2 SWAP1 POP JUMP JUMPDEST PUSH2 0xE4C DUP2 PUSH2 0xE39 JUMP JUMPDEST DUP3 MSTORE POP POP JUMP JUMPDEST PUSH1 0x0 PUSH1 0x20 DUP3 ADD SWAP1 POP PUSH2 0xE67 PUSH1 0x0 DUP4 ADD DUP5 PUSH2 0xE43 JUMP JUMPDEST SWAP3 SWAP2 POP POP JUMP JUMPDEST PUSH1 0x0 PUSH1 0x40 MLOAD SWAP1 POP SWAP1 JUMP JUMPDEST PUSH1 0x0 DUP1 REVERT JUMPDEST PUSH1 0x0 DUP1 REVERT JUMPDEST PUSH1 0x0 DUP1 REVERT JUMPDEST PUSH1 0x0 DUP1 REVERT JUMPDEST PUSH1 0x0 PUSH1 0x1F NOT PUSH1 0x1F DUP4 ADD AND SWAP1 POP SWAP2 SWAP1 POP JUMP JUMPDEST PUSH32 0x4E487B7100000000000000000000000000000000000000000000000000000000 PUSH1 0x0 MSTORE PUSH1 0x41 PUSH1 0x4 MSTORE PUSH1 0x24 PUSH1 0x0 REVERT JUMPDEST PUSH2 0xED4 DUP3 PUSH2 0xE8B JUMP JUMPDEST DUP2 ADD DUP2 DUP2 LT PUSH8 0xFFFFFFFFFFFFFFFF DUP3 GT OR ISZERO PUSH2 0xEF3 JUMPI PUSH2 0xEF2 PUSH2 0xE9C JUMP JUMPDEST JUMPDEST DUP1 PUSH1 0x40 MSTORE POP POP POP JUMP JUMPDEST PUSH1 0x0 PUSH2 0xF06 PUSH2 0xE6D JUMP JUMPDEST SWAP1 POP PUSH2 0xF12 DUP3 DUP3 PUSH2 0xECB JUMP JUMPDEST SWAP2 SWAP1 POP JUMP JUMPDEST PUSH1 0x0 PUSH8 0xFFFFFFFFFFFFFFFF DUP3 GT ISZERO PUSH2 0xF32 JUMPI PUSH2 0xF31 PUSH2 0xE9C JUMP JUMPDEST JUMPDEST PUSH2 0xF3B DUP3 PUSH2 0xE8B JUMP JUMPDEST SWAP1 POP PUSH1 0x20 DUP2 ADD SWAP1 POP SWAP2 SWAP1 POP JUMP JUMPDEST DUP3 DUP2 DUP4 CALLDATACOPY PUSH1 0x0 DUP4 DUP4 ADD MSTORE POP POP POP JUMP JUMPDEST PUSH1 0x0 PUSH2 0xF6A PUSH2 0xF65 DUP5 PUSH2 0xF17 JUMP JUMPDEST PUSH2 0xEFC JUMP JUMPDEST SWAP1 POP DUP3 DUP2 MSTORE PUSH1 0x20 DUP2 ADD DUP5 DUP5 DUP5 ADD GT ISZERO PUSH2 0xF86 JUMPI PUSH2 0xF85 PUSH2 0xE86 JUMP JUMPDEST JUMPDEST PUSH2 0xF91 DUP5 DUP3 DUP6 PUSH2 0xF48 JUMP JUMPDEST POP SWAP4 SWAP3 POP POP POP JUMP JUMPDEST PUSH1 0x0 DUP3 PUSH1 0x1F DUP4 ADD SLT PUSH2 0xFAE JUMPI PUSH2 0xFAD PUSH2 0xE81 JUMP JUMPDEST JUMPDEST DUP2 CALLDATALOAD PUSH2 0xFBE DUP5 DUP3 PUSH1 0x20 DUP7 ADD PUSH2 0xF57 JUMP JUMPDEST SWAP2 POP POP SWAP3 SWAP2 POP POP JUMP JUMPDEST PUSH1 0x0 PUSH1 0x20 DUP3 DUP5 SUB SLT ISZERO PUSH2 0xFDD JUMPI PUSH2 0xFDC PUSH2 0xE77 JUMP JUMPDEST JUMPDEST PUSH1 0x0 DUP3 ADD CALLDATALOAD PUSH8 0xFFFFFFFFFFFFFFFF DUP2 GT ISZERO PUSH2 0xFFB JUMPI PUSH2 0xFFA PUSH2 0xE7C JUMP JUMPDEST JUMPDEST PUSH2 0x1007 DUP5 DUP3 DUP6 ADD PUSH2 0xF99 JUMP JUMPDEST SWAP2 POP POP SWAP3 SWAP2 POP POP JUMP JUMPDEST PUSH1 0x0 PUSH20 0xFFFFFFFFFFFFFFFFFFFFFFFFFFFFFFFFFFFFFFFF DUP3 AND SWAP1 POP SWAP2 SWAP1 POP JUMP JUMPDEST PUSH1 0x0 PUSH2 0x103B DUP3 PUSH2 0x1010 JUMP JUMPDEST SWAP1 POP SWAP2 SWAP1 POP JUMP JUMPDEST PUSH2 0x104B DUP2 PUSH2 0x1030 JUMP JUMPDEST DUP3 MSTORE POP POP JUMP JUMPDEST PUSH1 0x0 DUP2 ISZERO ISZERO SWAP1 POP SWAP2 SWAP1 POP JUMP JUMPDEST PUSH2 0x1066 DUP2 PUSH2 0x1051 JUMP JUMPDEST DUP3 MSTORE POP POP JUMP JUMPDEST PUSH2 0x1075 DUP2 PUSH2 0xE39 JUMP JUMPDEST DUP3 MSTORE POP POP JUMP JUMPDEST PUSH1 0x80 DUP3 ADD PUSH1 0x0 DUP3 ADD MLOAD PUSH2 0x1091 PUSH1 0x0 DUP6 ADD DUP3 PUSH2 0x1042 JUMP JUMPDEST POP PUSH1 0x20 DUP3 ADD MLOAD PUSH2 0x10A4 PUSH1 0x20 DUP6 ADD DUP3 PUSH2 0x1042 JUMP JUMPDEST POP PUSH1 0x40 DUP3 ADD MLOAD PUSH2 0x10B7 PUSH1 0x40 DUP6 ADD DUP3 PUSH2 0x105D JUMP JUMPDEST POP PUSH1 0x60 DUP3 ADD MLOAD PUSH2 0x10CA PUSH1 0x60 DUP6 ADD DUP3 PUSH2 0x106C JUMP JUMPDEST POP POP POP POP JUMP JUMPDEST PUSH1 0x0 PUSH1 0x80 DUP3 ADD SWAP1 POP PUSH2 0x10E5 PUSH1 0x0 DUP4 ADD DUP5 PUSH2 0x107B JUMP JUMPDEST SWAP3 SWAP2 POP POP JUMP JUMPDEST PUSH2 0x10F4 DUP2 PUSH2 0x1030 JUMP JUMPDEST DUP2 EQ PUSH2 0x10FF JUMPI PUSH1 0x0 DUP1 REVERT JUMPDEST POP JUMP JUMPDEST PUSH1 0x0 DUP2 CALLDATALOAD SWAP1 POP PUSH2 0x1111 DUP2 PUSH2 0x10EB JUMP JUMPDEST SWAP3 SWAP2 POP POP JUMP JUMPDEST PUSH1 0x0 DUP1 PUSH1 0x40 DUP4 DUP6 SUB SLT ISZERO PUSH2 0x112E JUMPI PUSH2 0x112D PUSH2 0xE77 JUMP JUMPDEST JUMPDEST PUSH1 0x0 DUP4 ADD CALLDATALOAD PUSH8 0xFFFFFFFFFFFFFFFF DUP2 GT ISZERO PUSH2 0x114C JUMPI PUSH2 0x114B PUSH2 0xE7C JUMP JUMPDEST JUMPDEST PUSH2 0x1158 DUP6 DUP3 DUP7 ADD PUSH2 0xF99 JUMP JUMPDEST SWAP3 POP POP PUSH1 0x20 PUSH2 0x1169 DUP6 DUP3 DUP7 ADD PUSH2 0x1102 JUMP JUMPDEST SWAP2 POP POP SWAP3 POP SWAP3 SWAP1 POP JUMP JUMPDEST PUSH1 0x0 PUSH8 0xFFFFFFFFFFFFFFFF DUP3 AND SWAP1 POP SWAP2 SWAP1 POP JUMP JUMPDEST PUSH2 0x1190 DUP2 PUSH2 0x1173 JUMP JUMPDEST DUP2 EQ PUSH2 0x119B JUMPI PUSH1 0x0 DUP1 REVERT JUMPDEST POP JUMP JUMPDEST PUSH1 0x0 DUP2 CALLDATALOAD SWAP1 POP PUSH2 0x11AD DUP2 PUSH2 0x1187 JUMP JUMPDEST SWAP3 SWAP2 POP POP JUMP JUMPDEST PUSH1 0x0 DUP1 PUSH1 0x40 DUP4 DUP6 SUB SLT ISZERO PUSH2 0x11CA JUMPI PUSH2 0x11C9 PUSH2 0xE77 JUMP JUMPDEST JUMPDEST PUSH1 0x0 DUP4 ADD CALLDATALOAD PUSH8 0xFFFFFFFFFFFFFFFF DUP2 GT ISZERO PUSH2 0x11E8 JUMPI PUSH2 0x11E7 PUSH2 0xE7C JUMP JUMPDEST JUMPDEST PUSH2 0x11F4 DUP6 DUP3 DUP7 ADD PUSH2 0xF99 JUMP JUMPDEST SWAP3 POP POP PUSH1 0x20 PUSH2 0x1205 DUP6 DUP3 DUP7 ADD PUSH2 0x119E JUMP JUMPDEST SWAP2 POP POP SWAP3 POP SWAP3 SWAP1 POP JUMP JUMPDEST PUSH2 0x1218 DUP2 PUSH2 0x1030 JUMP JUMPDEST DUP3 MSTORE POP POP JUMP JUMPDEST PUSH1 0x0 PUSH1 0x20 DUP3 ADD SWAP1 POP PUSH2 0x1233 PUSH1 0x0 DUP4 ADD DUP5 PUSH2 0x120F JUMP JUMPDEST SWAP3 SWAP2 POP POP JUMP JUMPDEST PUSH2 0x1242 DUP2 PUSH2 0x1051 JUMP JUMPDEST DUP2 EQ PUSH2 0x124D JUMPI PUSH1 0x0 DUP1 REVERT JUMPDEST POP JUMP JUMPDEST PUSH1 0x0 DUP2 CALLDATALOAD SWAP1 POP PUSH2 0x125F DUP2 PUSH2 0x1239 JUMP JUMPDEST SWAP3 SWAP2 POP POP JUMP JUMPDEST PUSH2 0x126E DUP2 PUSH2 0xE39 JUMP JUMPDEST DUP2 EQ PUSH2 0x1279 JUMPI PUSH1 0x0 DUP1 REVERT JUMPDEST POP JUMP JUMPDEST PUSH1 0x0 DUP2 CALLDATALOAD SWAP1 POP PUSH2 0x128B DUP2 PUSH2 0x1265 JUMP JUMPDEST SWAP3 SWAP2 POP POP JUMP JUMPDEST PUSH1 0x0 DUP1 PUSH1 0x0 PUSH1 0x60 DUP5 DUP7 SUB SLT ISZERO PUSH2 0x12AA JUMPI PUSH2 0x12A9 PUSH2 0xE77 JUMP JUMPDEST JUMPDEST PUSH1 0x0 DUP5 ADD CALLDATALOAD PUSH8 0xFFFFFFFFFFFFFFFF DUP2 GT ISZERO PUSH2 0x12C8 JUMPI PUSH2 0x12C7 PUSH2 0xE7C JUMP JUMPDEST JUMPDEST PUSH2 0x12D4 DUP7 DUP3 DUP8 ADD PUSH2 0xF99 JUMP JUMPDEST SWAP4 POP POP PUSH1 0x20 PUSH2 0x12E5 DUP7 DUP3 DUP8 ADD PUSH2 0x1250 JUMP JUMPDEST SWAP3 POP POP PUSH1 0x40 PUSH2 0x12F6 DUP7 DUP3 DUP8 ADD PUSH2 0x127C JUMP JUMPDEST SWAP2 POP POP SWAP3 POP SWAP3 POP SWAP3 JUMP JUMPDEST PUSH1 0x0 DUP2 MLOAD SWAP1 POP SWAP2 SWAP1 POP JUMP JUMPDEST PUSH1 0x0 DUP2 SWAP1 POP SWAP3 SWAP2 POP POP JUMP JUMPDEST PUSH1 0x0 JUMPDEST DUP4 DUP2 LT ISZERO PUSH2 0x1334 JUMPI DUP1 DUP3 ADD MLOAD DUP2 DUP5 ADD MSTORE PUSH1 0x20 DUP2 ADD SWAP1 POP PUSH2 0x1319 JUMP JUMPDEST PUSH1 0x0 DUP5 DUP5 ADD MSTORE POP POP POP POP JUMP JUMPDEST PUSH1 0x0 PUSH2 0x134B DUP3 PUSH2 0x1300 JUMP JUMPDEST PUSH2 0x1355 DUP2 DUP6 PUSH2 0x130B JUMP JUMPDEST SWAP4 POP PUSH2 0x1365 DUP2 DUP6 PUSH1 0x20 DUP7 ADD PUSH2 0x1316 JUMP JUMPDEST DUP1 DUP5 ADD SWAP2 POP POP SWAP3 SWAP2 POP POP JUMP JUMPDEST PUSH1 0x0 PUSH2 0x137D DUP3 DUP5 PUSH2 0x1340 JUMP JUMPDEST SWAP2 POP DUP2 SWAP1 POP SWAP3 SWAP2 POP POP JUMP JUMPDEST PUSH1 0x0 DUP3 DUP3 MSTORE PUSH1 0x20 DUP3 ADD SWAP1 POP SWAP3 SWAP2 POP POP JUMP JUMPDEST PUSH32 0x4E616D65206E6F74206F776E6564000000000000000000000000000000000000 PUSH1 0x0 DUP3 ADD MSTORE POP JUMP JUMPDEST PUSH1 0x0 PUSH2 0x13CF PUSH1 0xE DUP4 PUSH2 0x1388 JUMP JUMPDEST SWAP2 POP PUSH2 0x13DA DUP3 PUSH2 0x1399 JUMP JUMPDEST PUSH1 0x20 DUP3 ADD SWAP1 POP SWAP2 SWAP1 POP JUMP JUMPDEST PUSH1 0x0 PUSH1 0x20 DUP3 ADD SWAP1 POP DUP2 DUP2 SUB PUSH1 0x0 DUP4 ADD MSTORE PUSH2 0x13FE DUP2 PUSH2 0x13C2 JUMP JUMPDEST SWAP1 POP SWAP2 SWAP1 POP JUMP JUMPDEST PUSH32 0x4E6F7420616C6C6F776564000000000000000000000000000000000000000000 PUSH1 0x0 DUP3 ADD MSTORE POP JUMP JUMPDEST PUSH1 0x0 PUSH2 0x143B PUSH1 0xB DUP4 PUSH2 0x1388 JUMP JUMPDEST SWAP2 POP PUSH2 0x1446 DUP3 PUSH2 0x1405 JUMP JUMPDEST PUSH1 0x20 DUP3 ADD SWAP1 POP SWAP2 SWAP1 POP JUMP JUMPDEST PUSH1 0x0 PUSH1 0x20 DUP3 ADD SWAP1 POP DUP2 DUP2 SUB PUSH1 0x0 DUP4 ADD MSTORE PUSH2 0x146A DUP2 PUSH2 0x142E JUMP JUMPDEST SWAP1 POP SWAP2 SWAP1 POP JUMP JUMPDEST PUSH32 0x4E487B7100000000000000000000000000000000000000000000000000000000 PUSH1 0x0 MSTORE PUSH1 0x11 PUSH1 0x4 MSTORE PUSH1 0x24 PUSH1 0x0 REVERT JUMPDEST PUSH1 0x0 PUSH2 0x14AB DUP3 PUSH2 0x1173 JUMP JUMPDEST SWAP2 POP PUSH2 0x14B6 DUP4 PUSH2 0x1173 JUMP JUMPDEST SWAP3 POP DUP3 DUP3 MUL PUSH2 0x14C4 DUP2 PUSH2 0x1173 JUMP JUMPDEST SWAP2 POP DUP1 DUP3 EQ PUSH2 0x14D6 JUMPI PUSH2 0x14D5 PUSH2 0x1471 JUMP JUMPDEST JUMPDEST POP SWAP3 SWAP2 POP POP JUMP JUMPDEST PUSH32 0x4E487B7100000000000000000000000000000000000000000000000000000000 PUSH1 0x0 MSTORE PUSH1 0x12 PUSH1 0x4 MSTORE PUSH1 0x24 PUSH1 0x0 REVERT JUMPDEST PUSH1 0x0 PUSH2 0x1517 DUP3 PUSH2 0xE39 JUMP JUMPDEST SWAP2 POP PUSH2 0x1522 DUP4 PUSH2 0xE39 JUMP JUMPDEST SWAP3 POP DUP3 PUSH2 0x1532 JUMPI PUSH2 0x1531 PUSH2 0x14DD JUMP JUMPDEST JUMPDEST DUP3 DUP3 MOD SWAP1 POP SWAP3 SWAP2 POP POP JUMP JUMPDEST PUSH32 0x696E6372656173652074746C0000000000000000000000000000000000000000 PUSH1 0x0 DUP3 ADD MSTORE POP JUMP JUMPDEST PUSH1 0x0 PUSH2 0x1573 PUSH1 0xC DUP4 PUSH2 0x1388 JUMP JUMPDEST SWAP2 POP PUSH2 0x157E DUP3 PUSH2 0x153D JUMP JUMPDEST PUSH1 0x20 DUP3 ADD SWAP1 POP SWAP2 SWAP1 POP JUMP JUMPDEST PUSH1 0x0 PUSH1 0x20 DUP3 ADD SWAP1 POP DUP2 DUP2 SUB PUSH1 0x0 DUP4 ADD MSTORE PUSH2 0x15A2 DUP2 PUSH2 0x1566 JUMP JUMPDEST SWAP1 POP SWAP2 SWAP1 POP JUMP JUMPDEST PUSH1 0x0 PUSH2 0x15B4 DUP3 PUSH2 0xE39 JUMP JUMPDEST SWAP2 POP PUSH2 0x15BF DUP4 PUSH2 0xE39 JUMP JUMPDEST SWAP3 POP DUP3 PUSH2 0x15CF JUMPI PUSH2 0x15CE PUSH2 0x14DD JUMP JUMPDEST JUMPDEST DUP3 DUP3 DIV SWAP1 POP SWAP3 SWAP2 POP POP JUMP JUMPDEST PUSH32 0x57726F6E6720616D6F756E740000000000000000000000000000000000000000 PUSH1 0x0 DUP3 ADD MSTORE POP JUMP JUMPDEST PUSH1 0x0 PUSH2 0x1610 PUSH1 0xC DUP4 PUSH2 0x1388 JUMP JUMPDEST SWAP2 POP PUSH2 0x161B DUP3 PUSH2 0x15DA JUMP JUMPDEST PUSH1 0x20 DUP3 ADD SWAP1 POP SWAP2 SWAP1 POP JUMP JUMPDEST PUSH1 0x0 PUSH1 0x20 DUP3 ADD SWAP1 POP DUP2 DUP2 SUB PUSH1 0x0 DUP4 ADD MSTORE PUSH2 0x163F DUP2 PUSH2 0x1603 JUMP JUMPDEST SWAP1 POP SWAP2 SWAP1 POP JUMP JUMPDEST PUSH1 0x0 PUSH2 0x1651 DUP3 PUSH2 0xE39 JUMP JUMPDEST SWAP2 POP PUSH2 0x165C DUP4 PUSH2 0xE39 JUMP JUMPDEST SWAP3 POP DUP3 DUP3 ADD SWAP1 POP DUP1 DUP3 GT ISZERO PUSH2 0x1674 JUMPI PUSH2 0x1673 PUSH2 0x1471 JUMP JUMPDEST JUMPDEST SWAP3 SWAP2 POP POP JUMP JUMPDEST PUSH1 0x0 DUP3 DUP3 MSTORE PUSH1 0x20 DUP3 ADD SWAP1 POP SWAP3 SWAP2 POP POP JUMP JUMPDEST PUSH1 0x0 PUSH2 0x1696 DUP3 PUSH2 0x1300 JUMP JUMPDEST PUSH2 0x16A0 DUP2 DUP6 PUSH2 0x167A JUMP JUMPDEST SWAP4 POP PUSH2 0x16B0 DUP2 DUP6 PUSH1 0x20 DUP7 ADD PUSH2 0x1316 JUMP JUMPDEST PUSH2 0x16B9 DUP2 PUSH2 0xE8B JUMP JUMPDEST DUP5 ADD SWAP2 POP POP SWAP3 SWAP2 POP POP JUMP JUMPDEST PUSH1 0x0 PUSH1 0x40 DUP3 ADD SWAP1 POP DUP2 DUP2 SUB PUSH1 0x0 DUP4 ADD MSTORE PUSH2 0x16DE DUP2 DUP6 PUSH2 0x168B JUMP JUMPDEST SWAP1 POP PUSH2 0x16ED PUSH1 0x20 DUP4 ADD DUP5 PUSH2 0xE43 JUMP JUMPDEST SWAP4 SWAP3 POP POP POP JUMP JUMPDEST PUSH32 0x4E6F742072656769737465726564000000000000000000000000000000000000 PUSH1 0x0 DUP3 ADD MSTORE POP JUMP JUMPDEST PUSH1 0x0 PUSH2 0x172A PUSH1 0xE DUP4 PUSH2 0x1388 JUMP JUMPDEST SWAP2 POP PUSH2 0x1735 DUP3 PUSH2 0x16F4 JUMP JUMPDEST PUSH1 0x20 DUP3 ADD SWAP1 POP SWAP2 SWAP1 POP JUMP JUMPDEST PUSH1 0x0 PUSH1 0x20 DUP3 ADD SWAP1 POP DUP2 DUP2 SUB PUSH1 0x0 DUP4 ADD MSTORE PUSH2 0x1759 DUP2 PUSH2 0x171D JUMP JUMPDEST SWAP1 POP SWAP2 SWAP1 POP JUMP JUMPDEST PUSH1 0x0 PUSH2 0x176B DUP3 PUSH2 0xE39 JUMP JUMPDEST SWAP2 POP PUSH2 0x1776 DUP4 PUSH2 0xE39 JUMP JUMPDEST SWAP3 POP DUP3 DUP3 MUL PUSH2 0x1784 DUP2 PUSH2 0xE39 JUMP JUMPDEST SWAP2 POP DUP3 DUP3 DIV DUP5 EQ DUP4 ISZERO OR PUSH2 0x179B JUMPI PUSH2 0x179A PUSH2 0x1471 JUMP JUMPDEST JUMPDEST POP SWAP3 SWAP2 POP POP JUMP JUMPDEST PUSH32 0x4E616D6520616C7265616479206F776E65640000000000000000000000000000 PUSH1 0x0 DUP3 ADD MSTORE POP JUMP JUMPDEST PUSH1 0x0 PUSH2 0x17D8 PUSH1 0x12 DUP4 PUSH2 0x1388 JUMP JUMPDEST SWAP2 POP PUSH2 0x17E3 DUP3 PUSH2 0x17A2 JUMP JUMPDEST PUSH1 0x20 DUP3 ADD SWAP1 POP SWAP2 SWAP1 POP JUMP JUMPDEST PUSH1 0x0 PUSH1 0x20 DUP3 ADD SWAP1 POP DUP2 DUP2 SUB PUSH1 0x0 DUP4 ADD MSTORE PUSH2 0x1807 DUP2 PUSH2 0x17CB JUMP JUMPDEST SWAP1 POP SWAP2 SWAP1 POP JUMP JUMPDEST PUSH32 0x4164642074746C00000000000000000000000000000000000000000000000000 PUSH1 0x0 DUP3 ADD MSTORE POP JUMP JUMPDEST PUSH1 0x0 PUSH2 0x1844 PUSH1 0x7 DUP4 PUSH2 0x1388 JUMP JUMPDEST SWAP2 POP PUSH2 0x184F DUP3 PUSH2 0x180E JUMP JUMPDEST PUSH1 0x20 DUP3 ADD SWAP1 POP SWAP2 SWAP1 POP JUMP JUMPDEST PUSH1 0x0 PUSH1 0x20 DUP3 ADD SWAP1 POP DUP2 DUP2 SUB PUSH1 0x0 DUP4 ADD MSTORE PUSH2 0x1873 DUP2 PUSH2 0x1837 JUMP JUMPDEST SWAP1 POP SWAP2 SWAP1 POP JUMP JUMPDEST PUSH1 0x0 PUSH1 0x40 DUP3 ADD SWAP1 POP DUP2 DUP2 SUB PUSH1 0x0 DUP4 ADD MSTORE PUSH2 0x1894 DUP2 DUP6 PUSH2 0x168B JUMP JUMPDEST SWAP1 POP PUSH2 0x18A3 PUSH1 0x20 DUP4 ADD DUP5 PUSH2 0x120F JUMP JUMPDEST SWAP4 SWAP3 POP POP POP JUMP INVALID LOG2 PUSH5 0x6970667358 0x22 SLT KECCAK256 0xEE SGT PUSH6 0x26EEF5D6667E XOR 0xD7 INVALID 0xA8 0xB2 LOG1 DUP11 0xC8 SWAP12 ORIGIN 0xDF COINBASE DIFFICULTY SWAP14 DUP14 CALL SWAP3 0xAC 0xAF SWAP15 CREATE2 0xCB DUP6 PUSH5 0x736F6C6343 STOP ADDMOD GT STOP CALLER "
        },
        "methodIdentifiers": {
          "addTtl(bytes,uint64)": "83e109cb",
          "checkName(bytes)": "5721cc4b",
          "getNameAddress(bytes)": "b0936fa3",
          "getPriceTag()": "18a8f238",
          "registerName(bytes,bool,uint256)": "c2d43f14",
          "setNewOwner(bytes,address)": "e778c5bc",
          "setSecondController(bytes,address)": "76912800"
        }
      }
    }
  }
}